:100000000C942A000C94A3110C94D9110C941E1278
:100010000C9463120C9447000C9447000C94470016
:100020000C9447000C9447000C94B2120C944700B7
:100030000C9447000C9447000C9447000C94470024
:100040000C9447000C9447000C9447000C94470014
:100050000C94470011241FBECFE5D8E0DEBFCDBF12
:1000600010E0A0E6B0E0E2E3F7E202C005900D92F6
:10007000AA36B107D9F710E0AAE6B0E001C01D9298
:10008000A038B107E1F70E942D100C9497130C943F
:100090000000EF92FF920F931F937B018C0120E0F1
:1000A00030E040E05FE40E94490388238CF0C801FF
:1000B000B70120E030E040E05FE40E94C1010E940F
:1000C000A9039B01AC01205030404040504806C07D
:1000D000C801B7010E94A9039B01AC01B901CA0183
:1000E0001F910F91FF90EF900895A0E0B0E0EBE733
:1000F000F0E00C946013DC012B01FA019C9192302A
:1001000008F439C1EB018881823008F433C194309E
:1001100069F4843009F02FC111969C91119789815F
:10012000981709F428C1A0E6B0E025C1843009F48D
:1001300021C18230A9F4923009F01DC19A01AD01AC
:1001400088E0EA010990AE01E90109929E0181501F
:10015000C1F7E201898111969C918923818308C1AD
:10016000923009F407C112962D903C901397EB0141
:100170008A819B811496AD90BD90CD90DC901797AD
:10018000EC80FD800E811F819101281B390BB90184
:1001900037FF04C066277727621B730B6032710537
:1001A0000CF061C0121613066CF537014801062EDB
:1001B00004C096948794779467940A94D2F721E0C8
:1001C00030E040E050E004C0220F331F441F551FB1
:1001D0006A95D2F721503040404050402E213F21B7
:1001E00040235123211531054105510521F021E01E
:1001F00030E040E050E079018A01E628F72808293C
:1002000019293CC0232BD1F1260E371E350146019A
:10021000062E04C096948794779467940A94D2F734
:1002200021E030E040E050E004C0220F331F441FC3
:10023000551F6A95D2F721503040404050402A2146
:100240003B214C215D21211531054105510521F04E
:1002500021E030E040E050E059016A01A628B728CB
:10026000C828D9280BC0821593052CF01C01AA249C
:10027000BB24650103C0EE24FF24870111969C91E5
:10028000D20111968C91981709F445C0992339F041
:10029000A80197012A193B094C095D0906C0A6016E
:1002A00095012E193F09400B510B57FD08C01182D3
:1002B0003382228224833583468357831DC081E0A5
:1002C00081833382228288279927DC01821B930B4A
:1002D000A40BB50B84839583A683B7830DC0220F2F
:1002E000331F441F551F24833583468357838281E0
:1002F000938101979383828324813581468157813D
:10030000DA01C9010197A109B1098F5F9F4FAF4F72
:10031000BF4328F30BC0918333822282EA0CFB1C7B
:100320000C1D1D1DE482F5820683178383E0808304
:10033000248135814681578157FF1AC0C901AA27F8
:1003400097FDA095BA2F81709070A070B0705695EF
:10035000479537952795822B932BA42BB52B848318
:100360009583A683B7838281938101969383828349
:10037000DF0101C0D201CD01CDB7DEB7E2E10C94BF
:100380007C13A0E2B0E0E7ECF1E00C946C1369831D
:100390007A838B839C832D833E834F835887E9E048
:1003A000EE2EF12CEC0EFD1ECE010196B7010E943F
:1003B000D2048E010F5E1F4FCE010596B8010E9438
:1003C000D2048A8991E089278A8BC701B801AE01DE
:1003D000475E5F4F0E9475000E94FD03A096E6E015
:1003E0000C948813A0E2B0E0E8EFF1E00C946C13F9
:1003F00069837A838B839C832D833E834F835887C5
:10040000F9E0EF2EF12CEC0EFD1ECE010196B701A6
:100410000E94D2048E010F5E1F4FCE010596B801D7
:100420000E94D204C701B801AE01475E5F4F0E942F
:1004300075000E94FD03A096E6E00C948813A0E2EC
:10044000B0E0E5E2F2E00C94601369837A838B8379
:100450009C832D833E834F835887CE010196BE0136
:10046000675F7F4F0E94D204CE010596BE016F5E8A
:100470007F4F0E94D2049985923088F0898982301A
:10048000C8F0943019F4823051F404C0843029F457
:10049000923081F480E690E0C6C0923049F420E0CA
:1004A0009A858A89981321E02A87CE010996BBC0D4
:1004B000823049F420E09A858A89981321E02A8BBA
:1004C000CE014196B0C02D843E844F8458886D88FB
:1004D0007E888F88988CEE24FF248701AA24BB2471
:1004E000650140E050E060E070E0E0E0F0E0C10174
:1004F00081709070892BE9F0E60CF71C081D191D1E
:100500009A01AB012A0D3B1D4C1D5D1D80E090E062
:10051000A0E0B0E0E614F7040805190520F481E036
:1005200090E0A0E0B0E0BA01A901480F591F6A1F8E
:100530007B1FAA0CBB1CCC1CDD1C97FE08C081E0F5
:1005400090E0A0E0B0E0A82AB92ACA2ADB2A3196B6
:10055000E032F10549F0660C771C881C991C569412
:10056000479437942794C3CFFA85EA892B893C892D
:100570008B859C85280F391F2E5F3F4F17C0CA01FE
:1005800081709070892B61F016950795F794E79428
:1005900080E090E0A0E0B0E8E82AF92A0A2B1B2BC3
:1005A00076956795579547952F5F3F4F77FDE7CF36
:1005B0000CC0440F551F661F771F17FD4160EE0CDE
:1005C000FF1C001F111F21503040403090E05907A0
:1005D00090E0690790E4790760F32B8F3C8FDB0193
:1005E000CA018F779070A070B07080349105A1051A
:1005F000B10561F447FD0AC0E114F10401051105DC
:1006000029F0405C5F4F6F4F7F4F40781A8EFE1786
:1006100011F081E08A8F4D8F5E8F6F8F78A383E01A
:10062000898FCE0149960E94FD03A096E2E10C94C9
:100630007C13A8E1B0E0EFE1F3E00C946C13698364
:100640007A838B839C832D833E834F83588789E0F5
:10065000E82EF12CEC0EFD1ECE010196B7010E9492
:10066000D2048E010F5E1F4FCE010596B8010E9485
:10067000D2048985823040F08989823028F0C70110
:10068000B8010E944A0501C08FEF6896E6E00C941D
:100690008813A8E1B0E0EFE4F3E00C946C136983F5
:1006A0007A838B839C832D833E834F83588789E095
:1006B000E82EF12CEC0EFD1ECE010196B7010E9432
:1006C000D2048E010F5E1F4FCE010596B8010E9425
:1006D000D2048985823040F08989823028F0C701B0
:1006E000B8010E944A0501C08FEF6896E6E00C94BD
:1006F0008813A8E1B0E0EFE7F3E00C946C13698392
:100700007A838B839C832D833E834F83588789E034
:10071000E82EF12CEC0EFD1ECE010196B7010E94D1
:10072000D2048E010F5E1F4FCE010596B8010E94C4
:10073000D2048985823040F08989823028F0C7014F
:10074000B8010E944A0501C081E06896E6E00C9479
:100750008813ACE0B0E0EFEAF3E00C947013698327
:100760007A838B839C83CE010196BE016B5F7F4FA2
:100770000E94D2048D81823061F1823050F1843048
:1007800021F48E81882351F12EC02F81388537FDC9
:1007900020C06E812F3131051CF06623F9F023C093
:1007A0008EE190E0821B930B29853A854B855C8511
:1007B00004C056954795379527958A95D2F76623B5
:1007C000B1F050954095309521953F4F4F4F5F4F79
:1007D0000EC020E030E040E050E009C02FEF3FEFD6
:1007E0004FEF5FE704C020E030E040E050E8B9019F
:1007F000CA012C96E2E00C948C13DF92EF92FF92E8
:100800000F931F93FC01E480F58006811781D1804E
:100810008081823048F480E090E0A0E1B0E0E82AF6
:10082000F92A0A2B1B2BA5C0843009F49FC0823003
:1008300021F4EE24FF24870105C0E114F104010531
:10084000110519F4E0E0F0E096C0628173819FEF3A
:10085000623879070CF05BC022E83FEF261B370BAC
:100860002A3131052CF020E030E040E050E02AC091
:10087000B801A701022E04C0769567955795479554
:100880000A94D2F781E090E0A0E0B0E004C0880FC5
:10089000991FAA1FBB1F2A95D2F70197A109B10979
:1008A0008E219F21A023B1230097A105B10521F03E
:1008B00081E090E0A0E0B0E09A01AB01282B392B59
:1008C0004A2B5B2BDA01C9018F779070A070B07052
:1008D00080349105A105B10539F427FF09C0205CDA
:1008E0003F4F4F4F5F4F04C0215C3F4F4F4F5F4F13
:1008F000E0E0F0E02030A0E03A07A0E04A07A0E402
:100900005A0710F0E1E0F0E079018A0127C0603871
:10091000710564F5FB01E158FF4FD801C7018F77DE
:100920009070A070B07080349105A105B10539F4C4
:10093000E7FE0DC080E490E0A0E0B0E004C08FE3EB
:1009400090E0A0E0B0E0E80EF91E0A1F1B1F17FFA1
:1009500005C016950795F794E794319687E01695AC
:100960000795F794E7948A95D1F705C0EE24FF2404
:100970008701EFEFF0E06E2F679566276795902F60
:100980009F77D794DD24D7948E2F8695492F462BB9
:10099000582F5D29B701CA011F910F91FF90EF9069
:1009A000DF900895FC01DB01408151812281622F9B
:1009B0006F7770E0221F2227221F9381892F880FD3
:1009C000822B282F30E0991F9927991F11969C930D
:1009D000119721153105A9F54115510561057105DD
:1009E00011F482E037C082E89FEF13969C938E93B8
:1009F00012979A01AB0167E0220F331F441F551F66
:100A00006A95D1F783E08C930DC0220F331F441FEA
:100A1000551F12968D919C911397019713969C9355
:100A20008E931297203080E0380780E0480780E4FA
:100A3000580758F314962D933D934D935C93179755
:100A400008952F3F310579F4411551056105710570
:100A500019F484E08C93089564FF03C081E08C93C3
:100A600012C01C9210C02F57304013963C932E9307
:100A7000129783E08C9387E0440F551F661F771F02
:100A80008A95D1F7706414964D935D936D937C9322
:100A9000179708951F93DC01FB019C91923008F495
:100AA00047C08081823008F443C0943051F41196DD
:100AB0001C91843099F58181682F70E0611B710968
:100AC0003FC0843021F0923031F48230B9F181811D
:100AD000882389F12DC011961C9111978230F1F075
:100AE00081811817D9F412962D913C911397828128
:100AF00093818217930794F028173907BCF0149656
:100B00008D919D910D90BC91A02D248135814681C0
:100B10005781281739074A075B0718F4112341F05A
:100B20000AC082179307A407B50740F4112319F0F0
:100B300061E070E005C06FEF7FEF02C060E070E041
:100B4000CB011F910895DF93CF93CDB7DEB7A7E216
:100B5000B0E0E7E2F0E0808180648C93A7E2B0E04F
:100B6000E7E2F0E080818F778C93A7E2B0E0E7E2E4
:100B7000F0E080818F7D8C93A6E2B0E0E6E2F0E0C9
:100B800080818F7D8C93A6E2B0E0E6E2F0E0808188
:100B900081608C93A6E2B0E0E6E2F0E080818260C2
:100BA0008C93A6E2B0E0E6E2F0E0808184608C9372
:100BB000A6E2B0E0E6E2F0E0808180688C93CF911D
:100BC000DF910895DF93CF9300D00F92CDB7DEB7BA
:100BD00089837B836A8389818032A0F58A819B81A6
:100BE000009781F1A7E2B0E0E7E2F0E08081807E4B
:100BF0008C93A7E2B0E0E7E2F0E090818981892B55
:100C00008C93A6E2B0E0E6E2F0E0808180648C9311
:100C1000E6E2F0E0808182958F70882F90E081700D
:100C200090700097A9F3A6E2B0E0E6E2F0E08081E0
:100C300080618C93E4E2F0E080819181EA81FB8124
:100C4000918380830F900F900F90CF91DF91089543
:100C5000DF93CF93CDB7DEB782E063E041E00E943F
:100C60008D0682E064E041E00E948D06CF91DF9125
:100C70000895DF93CF930F92CDB7DEB78983898133
:100C8000813059F482E063E041E00E94700782E025
:100C900064E040E00E9470070AC082E063E040E048
:100CA0000E94700782E064E041E00E9470070F90AC
:100CB000CF91DF910895DF93CF930F92CDB7DEB739
:100CC00089838981282F30E088E893E1AC01249F53
:100CD000C001259F900D349F900D112424E630E033
:100CE000B9010E944D13CB010E94860E0E944E0E48
:100CF0000F90CF91DF910895DF93CF93CDB7DEB7FB
:100D000082E063E040E00E94700782E064E040E03F
:100D10000E947007CF91DF910895DF93CF9300D0A9
:100D200000D00F92CDB7DEB789836A834B83898168
:100D3000282F30E03D832C838C819D81813091056B
:100D400009F443C02C813D81223031052CF48C8183
:100D50009D81009771F0BCC02C813D81223031050E
:100D600009F45FC08C819D818330910509F485C0B1
:100D7000AFC08B818130A1F4AAE3B0E0EAE3F0E0F8
:100D80008081482F8A81282F30E081E090E0022E78
:100D900002C0880F991F0A94E2F7842B8C9398C0A5
:100DA000AAE3B0E0EAE3F0E08081482F8A81282FAF
:100DB00030E081E090E0022E02C0880F991F0A9473
:100DC000E2F7809584238C9383C08B818130A1F4DA
:100DD000A7E3B0E0E7E3F0E08081482F8A81282F85
:100DE00030E081E090E0022E02C0880F991F0A9443
:100DF000E2F7842B8C936CC0A7E3B0E0E7E3F0E06C
:100E00008081482F8A81282F30E081E090E0022EF7
:100E100002C0880F991F0A94E2F7809584238C936F
:100E200057C08B818130A1F4A4E3B0E0E4E3F0E0AB
:100E30008081482F8A81282F30E081E090E0022EC7
:100E400002C0880F991F0A94E2F7842B8C9340C04C
:100E5000A4E3B0E0E4E3F0E08081482F8A81282F0A
:100E600030E081E090E0022E02C0880F991F0A94C2
:100E7000E2F7809584238C932BC08B818130A1F481
:100E8000A1E3B0E0E1E3F0E08081482F8A81282FE0
:100E900030E081E090E0022E02C0880F991F0A9492
:100EA000E2F7842B8C9314C0A1E3B0E0E1E3F0E01F
:100EB0008081482F8A81282F30E081E090E0022E47
:100EC00002C0880F991F0A94E2F7809584238C93BF
:100ED0000F900F900F900F900F90CF91DF9108958A
:100EE000DF93CF9300D000D00F92CDB7DEB78983C8
:100EF0006A834B838981282F30E03D832C838C814A
:100F00009D818130910509F443C02C813D812230BF
:100F100031052CF48C819D81009771F0BCC02C812F
:100F20003D812230310509F45FC08C819D81833081
:100F3000910509F485C0AFC08B818130A1F4ABE38A
:100F4000B0E0EBE3F0E08081482F8A81282F30E089
:100F500081E090E0022E02C0880F991F0A94E2F708
:100F6000842B8C9398C0ABE3B0E0EBE3F0E080819E
:100F7000482F8A81282F30E081E090E0022E02C0C5
:100F8000880F991F0A94E2F7809584238C9383C07D
:100F90008B818130A1F4A8E3B0E0E8E3F0E0808148
:100FA000482F8A81282F30E081E090E0022E02C095
:100FB000880F991F0A94E2F7842B8C936CC0A8E3E6
:100FC000B0E0E8E3F0E08081482F8A81282F30E00C
:100FD00081E090E0022E02C0880F991F0A94E2F788
:100FE000809584238C9357C08B818130A1F4A5E335
:100FF000B0E0E5E3F0E08081482F8A81282F30E0DF
:1010000081E090E0022E02C0880F991F0A94E2F757
:10101000842B8C9340C0A5E3B0E0E5E3F0E0808151
:10102000482F8A81282F30E081E090E0022E02C014
:10103000880F991F0A94E2F7809584238C932BC024
:101040008B818130A1F4A2E3B0E0E2E3F0E08081A3
:10105000482F8A81282F30E081E090E0022E02C0E4
:10106000880F991F0A94E2F7842B8C9314C0A2E393
:10107000B0E0E2E3F0E08081482F8A81282F30E061
:1010800081E090E0022E02C0880F991F0A94E2F7D7
:10109000809584238C930F900F900F900F900F905A
:1010A000CF91DF910895DF93CF9300D000D000D08F
:1010B000CDB7DEB789836A835C834B838981282F10
:1010C00030E03E832D834D815E814130510559F1E1
:1010D0008D819E818230910534F42D813E812115D0
:1010E000310569F05BC04D815E814230510579F177
:1010F0008D819E818330910509F43DC04FC0E9E3A5
:10110000F0E08081282F30E08A81882F90E0A901CB
:1011100002C0559547958A95E2F7CA018170EB8127
:10112000FC8180833BC0E6E3F0E08081282F30E043
:101130008A81882F90E0A90102C0559547958A952C
:10114000E2F7CA018170EB81FC81808327C0E3E371
:10115000F0E08081282F30E08A81882F90E0A9017B
:1011600002C0559547958A95E2F7CA018170EB81D7
:10117000FC81808313C0E0E3F0E08081282F30E021
:101180008A81882F90E0A90102C0559547958A95DC
:10119000E2F7CA018170EB81FC81808326960FB64D
:1011A000F894DEBF0FBECDBFCF91DF910895DF93DE
:1011B000CF9300D000D0CDB7DEB789836A83898111
:1011C000282F30E03C832B838B819C8181309105DB
:1011D00049F12B813C81223031052CF48B819C819B
:1011E000009761F05AC02B813C812230310571F1AA
:1011F0008B819C8183309105E9F14FC0ABE3B0E076
:10120000EBE3F0E08081482F8A81282F30E081E0F5
:1012100090E0022E02C0880F991F0A94E2F78427FB
:101220008C933BC0A8E3B0E0E8E3F0E08081482F76
:101230008A81282F30E081E090E0022E02C0880FE2
:10124000991F0A94E2F784278C9327C0A5E3B0E0A6
:10125000E5E3F0E08081482F8A81282F30E081E0AB
:1012600090E0022E02C0880F991F0A94E2F78427AB
:101270008C9313C0A2E3B0E0E2E3F0E08081482F5A
:101280008A81282F30E081E090E0022E02C0880F92
:10129000991F0A94E2F784278C930F900F900F9078
:1012A0000F90CF91DF910895DF93CF9300D000D0BE
:1012B000CDB7DEB789836A838981282F30E03C83EC
:1012C0002B838B819C818130910549F12B813C815D
:1012D000223031052CF48B819C81009761F05AC03B
:1012E0002B813C812230310571F18B819C818330CF
:1012F0009105E9F14FC0ABE3B0E0EBE3F0E08081B2
:10130000482F8A81282F30E081E090E0022E02C031
:10131000880F991F0A94E2F7842B8C933BC0A8E3B3
:10132000B0E0E8E3F0E08081482F8A81282F30E0A8
:1013300081E090E0022E02C0880F991F0A94E2F724
:10134000842B8C9327C0A5E3B0E0E5E3F0E0808137
:10135000482F8A81282F30E081E090E0022E02C0E1
:10136000880F991F0A94E2F7842B8C9313C0A2E391
:10137000B0E0E2E3F0E08081482F8A81282F30E05E
:1013800081E090E0022E02C0880F991F0A94E2F7D4
:10139000842B8C930F900F900F900F90CF91DF9133
:1013A0000895DF93CF93CDB7DEB70E94FA0ECF91A9
:1013B000DF910895DF93CF93CDB7DEB762970FB675
:1013C000F894DEBF0FBECDBF998B888B6A8B88895E
:1013D0009989892F992780658F870E94210F8F8592
:1013E0000E947E0F88890E94E40F8A890E94E40F80
:1013F0000E94690F80E090E0A0EAB0E48B879C87B0
:10140000AD87BE876B857C858D859E8520E030E02D
:101410004AE755E40E941F02DC01CB018F839887C5
:10142000A987BA876F81788589859A8520E030E021
:1014300040E85FE30E94790388232CF481E090E088
:101440009E838D833FC06F81788589859A8520E052
:101450003FEF4FE757E40E94190318164CF56B85D0
:101460007C858D859E8520E030E040E251E40E943D
:101470001F02DC01CB01BC01CD010E944900DC014F
:10148000CB019E838D830FC080E991E09C838B8389
:101490008B819C810197F1F79C838B838D819E8149
:1014A00001979E838D838D819E81009769F714C07B
:1014B0006F81788589859A850E944900DC01CB017E
:1014C0009E838D838D819E819A83898389819A8170
:1014D0000197F1F79A83898362960FB6F894DEBF7D
:1014E0000FBECDBFCF91DF910895DF93CF9300D092
:1014F00000D0CDB7DEB79C838B838B819C81892FF5
:101500009927806589830E94210F89810E947E0F1F
:101510008B810E94E40F0E94450F89810E94B10FC8
:101520000E9408108A830E94690F8A810F900F9091
:101530000F900F90CF91DF910895DF93CF9300D05C
:1015400000D0CDB7DEB789836A838981282F30E048
:101550003C832B838B819C818130910509F461C090
:101560002B813C812230310509F4B1C08B819C81F3
:10157000009709F0CFC08A81882379F4A5E5B0E00F
:10158000E5E5F0E0808181608C93A5E5B0E0E5E5DC
:10159000F0E0808182608C9335C08A81813079F45B
:1015A000A5E5B0E0E5E5F0E080818E7F8C93A5E5D0
:1015B000B0E0E5E5F0E0808182608C9323C08A8111
:1015C000823079F4A5E5B0E0E5E5F0E080818E7F3A
:1015D0008C93A5E5B0E0E5E5F0E080818D7F8C930C
:1015E00011C08A81833071F4A5E5B0E0E5E5F0E053
:1015F00080818E7F8C93A5E5B0E0E5E5F0E0808109
:1016000082608C93A1E3B0E0E1E3F0E080818B7F26
:101610008C93ABE5B0E0EBE5F0E0808180648C93E7
:1016200079C08A81882379F4A5E5B0E0E5E5F0E0AA
:10163000808184608C93A5E5B0E0E5E5F0E08081F1
:1016400088608C9335C08A81813079F4A5E5B0E05B
:10165000E5E5F0E080818B7F8C93A5E5B0E0E5E5E2
:10166000F0E0808188608C9323C08A81823079F495
:10167000A5E5B0E0E5E5F0E080818B7F8C93A5E502
:10168000B0E0E5E5F0E08081877F8C9311C08A812E
:10169000833071F4A5E5B0E0E5E5F0E08081846099
:1016A0008C93A5E5B0E0E5E5F0E08081877F8C9341
:1016B000A1E3B0E0E1E3F0E08081877F8C93ABE5CC
:1016C000B0E0EBE5F0E0808180688C9323C08A81F4
:1016D000882341F4A4E5B0E0E4E5F0E08081806493
:1016E0008C930AC08A81813039F4A4E5B0E0E4E546
:1016F000F0E080818F7B8C93A7E3B0E0E7E3F0E03C
:1017000080818B7F8C93ABE5B0E0EBE5F0E08081EE
:1017100080628C930F900F900F900F90CF91DF917C
:101720000895DF93CF9300D00F92CDB7DEB78983B2
:101730008981282F30E03B832A838A819B818130F5
:10174000910589F02A813B8122303105A1F08A81FF
:101750009B810097B9F4ABE5B0E0EBE5F0E0808168
:101760008F7B8C930FC0ABE5B0E0EBE5F0E08081C0
:101770008F778C9307C0ABE5B0E0EBE5F0E08081BC
:101780008F7D8C930F900F900F90CF91DF910895E4
:10179000DF93CF93CDB7DEB7AFE5B0E0EFE5F0E094
:1017A000808180688C93CF91DF910895DF93CF93F0
:1017B000CDB7DEB7AFE5B0E0EFE5F0E080818F7741
:1017C0008C93CF91DF910895DF93CF93CDB7DEB7A0
:1017D00082E067E041E00E948D06CF91DF9108959D
:1017E000DF93CF93CDB7DEB782E067E041E00E94A0
:1017F0007007CF91DF910895DF93CF93CDB7DEB718
:1018000082E067E040E00E947007CF91DF91089589
:10181000DF93CF93CDB7DEB782E065E041E00E9471
:101820008D06CF91DF910895DF93CF93CDB7DEB7CB
:1018300082E065E041E00E947007CF91DF9108955A
:10184000DF93CF93CDB7DEB782E065E040E00E9442
:101850007007CF91DF910895DF93CF93CDB7DEB7B7
:1018600082E065E00E94D708CF91DF910895DF9371
:10187000CF93CDB7DEB780E060E040E00E948D06F8
:10188000CF91DF910895DF93CF9300D000D00F92D6
:10189000CDB7DEB79D838C839E012E5F3F4F84E0E2
:1018A000B9010E94E2058A819B818B30910530F459
:1018B0008A819B819695879589837EC08A819B8149
:1018C0008B30910560F08A819B818233910538F4D9
:1018D0008A819B8101979695879589836DC08A81BE
:1018E0009B818931910560F08A819B8187359105C3
:1018F00038F48A819B8102979695879589835CC08D
:101900008A819B818B32910560F08A819B818E3721
:10191000910538F48A819B810397969587958983F1
:101920004BC08A819B818E33910560F08A819B81B7
:10193000853A910538F48A819B810497969587951D
:1019400089833AC08A819B818135910560F08A81C3
:101950009B818C3C910538F48A819B8105979695F3
:101960008795898329C08A819B818436910560F09F
:101970008A819B81833F910538F48A819B810697F8
:1019800096958795898318C08A819B8187379105B1
:1019900068F08A819B8121E08A31920738F48A813C
:1019A0009B81079796958795898306C08A819B813D
:1019B0000897969587958983EC81FD81898180833D
:1019C0000F900F900F900F900F90CF91DF9108958F
:1019D000DF93CF93CDB7DEB780E060E041E00E94B7
:1019E0008D0680E061E041E00E948D0680E062E0CB
:1019F00041E00E948D0680E063E041E00E948D0698
:101A000081E064E041E00E948D0681E065E041E014
:101A10000E948D0681E066E041E00E948D0681E033
:101A200067E041E00E948D0680E066E041E00E94B0
:101A30008D0681E061E041E00E948D06CF91DF914B
:101A40000895DF93CF93CDB7DEB780E066E041E045
:101A50000E94700781E061E041E00E947007CF9131
:101A6000DF910895DF93CF93CDB7DEB780E066E0D6
:101A700040E00E94700781E061E040E00E94700752
:101A8000CF91DF910895DF93CF9300D000D0CDB7F1
:101A9000DEB789836A838981282F30E03C832B83DA
:101AA0008B819C818130910531F02B813C812230EA
:101AB000310569F01EC0ABE3B0E0EBE3F0E08081FC
:101AC000982F907F8A818F70892B8C9312C0A8E306
:101AD000B0E0E8E3F0E08081282F2F708A81882F22
:101AE00090E082959295907F9827807F9827822B0F
:101AF0008C930F900F900F900F90CF91DF910895DE
:101B0000DF93CF930F92CDB7DEB7898389819AE0B7
:101B1000692F0E942D13982F81E0692F0E94430D99
:101B200089819AE0692F0E942D13892F982F82E0D6
:101B3000692F0E94430D0F90CF91DF910895DF939D
:101B4000CF93CDB7DEB780E066E00E94D70881E092
:101B500061E00E94D708CF91DF910895DF93CF9382
:101B6000CDB7DEB7A3E5B0E0E3E5F0E080818F7BA1
:101B70008C93A3E5B0E0E3E5F0E0808188608C938E
:101B8000A9E5B0E0E9E5F0E0808182608C93CF9137
:101B9000DF910895DF93CF93CDB7DEB7A3E5B0E033
:101BA000E3E5F0E0808181608C93A3E5B0E0E3E5BC
:101BB000F0E0808182608C93A3E5B0E0E3E5F0E0A3
:101BC00080818B7F8C93CF91DF910895DF93CF93AA
:101BD000CDB7DEB7A3E5B0E0E3E5F0E080818E7F2E
:101BE0008C93A3E5B0E0E3E5F0E080818D7F8C93FA
:101BF000A3E5B0E0E3E5F0E080818B7F8C93CF91AB
:101C0000DF910895DF93CF930F92CDB7DEB789832D
:101C1000ECE5F0E0898180830F90CF91DF9108950A
:101C2000DF93CF93CDB7DEB7AFE4B0E0EFE4F0E001
:101C300080818E7F8C93AFE4B0E0EFE4F0E08081B0
:101C400082608C93AEE4B0E0EEE4F0E080818860E6
:101C50008C93AEE4B0E0EEE4F0E0808180618C93A0
:101C6000AFE4B0E0EFE4F0E080818F7B8C93AFE4F1
:101C7000B0E0EFE4F0E0808180688C93A1E3B0E015
:101C8000E1E3F0E0808180628C93E6E4F0E087E8B5
:101C900093E191838083CF91DF910895DF93CF9378
:101CA000CDB7DEB7AEE4B0E0EEE4F0E08081816075
:101CB0008C93AEE4B0E0EEE4F0E0808182608C933F
:101CC000AEE4B0E0EEE4F0E080818B7F8C93CF91C6
:101CD000DF910895DF93CF93CDB7DEB7AEE4B0E0E8
:101CE000EEE4F0E080818E7F8C93AEE4B0E0EEE431
:101CF000F0E080818D7F8C93AEE4B0E0EEE4F0E024
:101D000080818B7F8C93CF91DF910895DF93CF9368
:101D100000D0CDB7DEB79A838983EAE4F0E0898109
:101D20009A81918380830F900F90CF91DF910895D6
:101D3000DF93CF93CDB7DEB7A5E4B0E0E5E4F0E004
:101D400080818F7B8C93A5E4B0E0E5E4F0E08081B6
:101D500088608C93A9E5B0E0E9E5F0E080818068D7
:101D60008C93CF91DF910895DF93CF93CDB7DEB7FA
:101D7000A5E4B0E0E5E4F0E080818E7F8C93A5E4FB
:101D8000B0E0E5E4F0E080818D7F8C93A5E4B0E0E5
:101D9000E5E4F0E0808184608C93CF91DF91089539
:101DA000DF93CF93CDB7DEB7A5E4B0E0E5E4F0E094
:101DB00080818E7F8C93A5E4B0E0E5E4F0E0808143
:101DC0008D7F8C93A5E4B0E0E5E4F0E080818B7F2B
:101DD0008C93CF91DF910895DF93CF930F92CDB77E
:101DE000DEB78983E3E4F0E0898180830F90CF91AF
:101DF000DF910895DF93CF93CDB7DEB7E0E2F0E057
:101E00008CE08083A1E2B0E0E1E2F0E080818E7FAF
:101E10008C93A1E2B0E0E1E2F0E080818D7F8C93D1
:101E2000A6E5B0E0E6E5F0E0808180648C93A6E56D
:101E3000B0E0E6E5F0E0808184608C93CF91DF91A3
:101E40000895DF93CF93CDB7DEB7A6E5B0E0E6E522
:101E5000F0E0808180628C93A6E5B0E0E6E5F0E0FA
:101E6000808180688C93E6E5F0E080818823DCF750
:101E7000E1E2F0E08081882F90E0887F90708830E8
:101E80009105B1F7CF91DF910895DF93CF93CDB74F
:101E9000DEB7A6E5B0E0E6E5F0E0808180628C93F5
:101EA000A6E5B0E0E6E5F0E0808180688C93E6E5A9
:101EB000F0E080818823DCF7E1E2F0E08081882F88
:101EC00090E0887F907080319105B1F7CF91DF91DC
:101ED0000895DF93CF93CDB7DEB7A6E5B0E0E6E592
:101EE000F0E0808180618C93A6E5B0E0E6E5F0E06B
:101EF000808180688C93CF91DF910895DF93CF9399
:101F00000F92CDB7DEB78983E3E2F0E08981880FD5
:101F10008083A3E2B0E0E3E2F0E080818E7F8C93E7
:101F2000A6E5B0E0E6E5F0E080818F7D8C93A6E544
:101F3000B0E0E6E5F0E0808180688C93E6E5F0E0D3
:101F400080818823DCF7E1E2F0E08081882F90E057
:101F5000887F907088319105B1F70F90CF91DF9114
:101F60000895DF93CF930F92CDB7DEB78983E3E275
:101F7000F0E08981880F8083A3E2B0E0E3E2F0E043
:101F8000808181608C93A6E5B0E0E6E5F0E0808199
:101F90008F7D8C93A6E5B0E0E6E5F0E08081806877
:101FA0008C93E6E5F0E080818823DCF7E1E2F0E065
:101FB0008081882F90E0887F907080349105B1F700
:101FC0000F90CF91DF910895DF93CF930F92CDB70C
:101FD000DEB78983E3E2F0E089818083A6E5B0E0A3
:101FE000E6E5F0E0808180688C93E6E5F0E08081B2
:101FF0008823DCF7E1E2F0E08081882F90E0887FA1
:10200000907088329105B1F70F90CF91DF910895CC
:10201000DF93CF930F92CDB7DEB7A6E5B0E0E6E54C
:10202000F0E0808180688C930AC0E1E2F0E080817A
:10203000882F90E0887F907080359105B1F7E6E5B4
:10204000F0E0808188238CF7E3E2F0E080818983EF
:1020500089810F90CF91DF910895DF93CF93CDB712
:10206000DEB72E970FB6F894DEBF0FBECDBF0E942D
:10207000080C0E94C80B0E94A3050E94370C0E9406
:10208000E40B0E9428060E94E80C0E94AE0D0E94FC
:10209000D10989EF0E94020E0E94980E89EF0E94DA
:1020A000EC0E80E061E00E949D0A0E948811809100
:1020B0006800882309F07DC080917500813009F0A7
:1020C00078C00E949F0D80917F000E94800D80E06B
:1020D00090E0AAE7B4E48B879C87AD87BE876B85C9
:1020E0007C858D859E8520E030E04AE755E40E949E
:1020F0001F02DC01CB018F839887A987BA876F8184
:10210000788589859A8520E030E040E85FE30E9489
:10211000790388232CF481E090E09E838D833FC077
:102120006F81788589859A8520E03FEF4FE757E4F6
:102130000E94190318164CF56B857C858D859E854C
:1021400020E030E040E251E40E941F02DC01CB01BC
:10215000BC01CD010E944900DC01CB019E838D832F
:102160000FC080E991E09C838B838B819C810197D8
:10217000F1F79C838B838D819E8101979E838D8354
:102180008D819E81009769F714C06F81788589855C
:102190009A850E944900DC01CB019E838D838D814D
:1021A0009E819A83898389819A810197F1F79A8325
:1021B000898380917D00282F30E080917C00882FDA
:1021C00090E00596281739076CF0809175008130F2
:1021D00049F481E00E94390684E60E945B060E9471
:1021E000140C65CF80917D00282F30E080917C0019
:1021F000882F90E005978217930754F0809175001F
:10220000813031F40E94F00B81E0809374004FCF55
:102210000E947C060E94200C0E94FC0B48CFDF939A
:10222000CF930F92CDB7DEB719820AC08981882F6C
:1022300090E086599F4F0E94430C89818F5F89836C
:1022400089818A3098F30F90CF91DF910895DF93C1
:10225000CF9300D00F92CDB7DEB71B821A821982BE
:1022600012C08981882F90E0FC01E659FF4F8081E0
:10227000282F30E08A819B81820F931F9B838A8362
:1022800089818F5F898389818A3058F38A819B8114
:102290002AE030E0B9010E943913CB019B838A8385
:1022A0008A810F900F900F90CF91DF910895DF9367
:1022B000CF930F92CDB7DEB781E061E00E949D0A17
:1022C00082E061E00E949D0A0E94CA0D0E944E0EAB
:1022D0000E94210D0E940F110E94271180937D0002
:1022E00010927E0082E390E00E94750A89838981C2
:1022F0008C3418F48981833220F48CE380937C0041
:1023000003C0898180937C000F90CF91DF91089565
:10231000DF93CF93CDB7DEB781E00E94910B82E0CF
:102320000E94910B0E94E60D0E946A0E0E94D00E40
:102330000E94200C0E94320D0E947C060E94FC0B21
:10234000CF91DF9108951F920F920FB60F92112433
:102350002F933F934F935F936F937F938F939F93AD
:10236000AF93BF93EF93FF93DF93CF93CDB7DEB7D8
:1023700080917500882331F40E94571181E0809389
:10238000750004C00E94881110927500CF91DF91F2
:10239000FF91EF91BF91AF919F918F917F916F913D
:1023A0005F914F913F912F910F900FBE0F901F9013
:1023B00018951F920F920FB60F9211242F933F93EF
:1023C0004F935F936F937F938F939F93AF93BF933D
:1023D000EF93FF93DF93CF93CDB7DEB710927700E3
:1023E0001092760080916800813049F41092680064
:1023F00080917C0080937F000E94B40E0CC080917D
:102400007F008B5F80937F0080917F008B3418F07A
:102410008BE480937F00CF91DF91FF91EF91BF918B
:10242000AF919F918F917F916F915F914F913F916C
:102430002F910F900FBE0F901F9018951F920F9223
:102440000FB60F9211242F933F934F935F936F9387
:102450007F938F939F93AF93BF93EF93FF93DF93FC
:10246000CF93CDB7DEB710927700109276008091AF
:102470006800813049F41092680080917C0080935C
:102480007F000E94B40E0CC080917F008550809325
:102490007F0080917F00843218F483E280937F0074
:1024A000CF91DF91FF91EF91BF91AF919F918F916C
:1024B0007F916F915F914F913F912F910F900FBE40
:1024C0000F901F9018951F920F920FB60F92112424
:1024D0002F933F934F935F936F937F938F939F932C
:1024E000AF93BF93EF93FF93DF93CF93CDB7DEB757
:1024F0008091760090917700019690937700809379
:102500007600809176009091770023E188389207D9
:10251000B1F410927700109276000E94D00E81E004
:102520008093680080917F0080937C0020917C00E4
:1025300082E390E0622F0E94DA090E94210DCF9180
:10254000DF91FF91EF91BF91AF919F918F917F911B
:102550006F915F914F913F912F910F900FBE0F9010
:102560001F9018951F920F920FB60F9211242F9360
:102570003F934F935F936F937F938F939F93AF930B
:10258000BF93EF93FF93DF93CF93CDB7DEB78091E7
:102590007A0090917B00019690937B0080937A0063
:1025A000809174008130C1F480917800909179001D
:1025B00001969093790080937800809178009091B3
:1025C000790023E0883E920759F40E942C0C109267
:1025D00079001092780004C010927900109278006F
:1025E00080917A0090917B008436910519F51092C4
:1025F0007B0010927A0080917E008B3010F0109258
:102600007E0080917E00882F90E086599F4F0E9427
:10261000430C80917E008F5F80937E000E94271183
:1026200080937D0080916800813021F480917D004D
:102630000E94800DCF91DF91FF91EF91BF91AF91FB
:102640009F918F917F916F915F914F913F912F91CA
:102650000F900FBE0F901F901895991B79E004C042
:10266000991F961708F0961B881F7A95C9F78095D1
:102670000895AA1BBB1B51E107C0AA1FBB1FA617C9
:10268000B70710F0A61BB70B881F991F5A95A9F71B
:1026900080959095BC01CD01089597FB092E0726E2
:1026A0000AD077FD04D0E5DF06D000201AF470953B
:1026B00061957F4F0895F6F7909581959F4F089506
:1026C0002F923F924F925F926F927F928F929F9242
:1026D000AF92BF92CF92DF92EF92FF920F931F9330
:1026E000CF93DF93CDB7DEB7CA1BDB0B0FB6F894E1
:1026F000DEBF0FBECDBF09942A88398848885F8421
:102700006E847D848C849B84AA84B984C884DF8091
:10271000EE80FD800C811B81AA81B981CE0FD11D75
:102720000FB6F894DEBF0FBECDBFED010895F8944B
:02273000FFCFD9
:0A273200000000000000000001009C
:00000001FF
